{
  "_format": "hh-sol-artifact-1",
  "contractName": "Employment",
  "sourceName": "contracts/Employment.sol",
  "abi": [
    {
      "inputs": [
        {
          "internalType": "int96",
          "name": "_salaryFlowRate",
          "type": "int96"
        },
        {
          "internalType": "uint256",
          "name": "_employeeId",
          "type": "uint256"
        },
        {
          "internalType": "address",
          "name": "_employer",
          "type": "address"
        },
        {
          "internalType": "address",
          "name": "_employee",
          "type": "address"
        },
        {
          "internalType": "contract ISuperToken",
          "name": "_salaryToken",
          "type": "address"
        },
        {
          "internalType": "contract ISuperfluid",
          "name": "_host",
          "type": "address"
        }
      ],
      "stateMutability": "nonpayable",
      "type": "constructor"
    },
    {
      "inputs": [],
      "name": "Unauthorized",
      "type": "error"
    },
    {
      "inputs": [],
      "name": "CFA_ID",
      "outputs": [
        {
          "internalType": "bytes32",
          "name": "",
          "type": "bytes32"
        }
      ],
      "stateMutability": "view",
      "type": "function"
    },
    {
      "inputs": [
        {
          "internalType": "address",
          "name": "",
          "type": "address"
        }
      ],
      "name": "accountList",
      "outputs": [
        {
          "internalType": "bool",
          "name": "",
          "type": "bool"
        }
      ],
      "stateMutability": "view",
      "type": "function"
    },
    {
      "inputs": [
        {
          "internalType": "contract ISuperToken",
          "name": "_superToken",
          "type": "address"
        },
        {
          "internalType": "address",
          "name": "_agreementClass",
          "type": "address"
        },
        {
          "internalType": "bytes32",
          "name": "",
          "type": "bytes32"
        },
        {
          "internalType": "bytes",
          "name": "",
          "type": "bytes"
        },
        {
          "internalType": "bytes",
          "name": "",
          "type": "bytes"
        },
        {
          "internalType": "bytes",
          "name": "ctx",
          "type": "bytes"
        }
      ],
      "name": "afterAgreementCreated",
      "outputs": [
        {
          "internalType": "bytes",
          "name": "newCtx",
          "type": "bytes"
        }
      ],
      "stateMutability": "nonpayable",
      "type": "function"
    },
    {
      "inputs": [
        {
          "internalType": "contract ISuperToken",
          "name": "_superToken",
          "type": "address"
        },
        {
          "internalType": "address",
          "name": "_agreementClass",
          "type": "address"
        },
        {
          "internalType": "bytes32",
          "name": "",
          "type": "bytes32"
        },
        {
          "internalType": "bytes",
          "name": "",
          "type": "bytes"
        },
        {
          "internalType": "bytes",
          "name": "",
          "type": "bytes"
        },
        {
          "internalType": "bytes",
          "name": "ctx",
          "type": "bytes"
        }
      ],
      "name": "afterAgreementTerminated",
      "outputs": [
        {
          "internalType": "bytes",
          "name": "newCtx",
          "type": "bytes"
        }
      ],
      "stateMutability": "nonpayable",
      "type": "function"
    },
    {
      "inputs": [
        {
          "internalType": "contract ISuperToken",
          "name": "_superToken",
          "type": "address"
        },
        {
          "internalType": "address",
          "name": "_agreementClass",
          "type": "address"
        },
        {
          "internalType": "bytes32",
          "name": "",
          "type": "bytes32"
        },
        {
          "internalType": "bytes",
          "name": "",
          "type": "bytes"
        },
        {
          "internalType": "bytes",
          "name": "",
          "type": "bytes"
        },
        {
          "internalType": "bytes",
          "name": "ctx",
          "type": "bytes"
        }
      ],
      "name": "afterAgreementUpdated",
      "outputs": [
        {
          "internalType": "bytes",
          "name": "newCtx",
          "type": "bytes"
        }
      ],
      "stateMutability": "nonpayable",
      "type": "function"
    },
    {
      "inputs": [
        {
          "internalType": "address",
          "name": "_account",
          "type": "address"
        }
      ],
      "name": "allowAccount",
      "outputs": [],
      "stateMutability": "nonpayable",
      "type": "function"
    },
    {
      "inputs": [
        {
          "internalType": "contract ISuperToken",
          "name": "",
          "type": "address"
        },
        {
          "internalType": "address",
          "name": "",
          "type": "address"
        },
        {
          "internalType": "bytes32",
          "name": "",
          "type": "bytes32"
        },
        {
          "internalType": "bytes",
          "name": "",
          "type": "bytes"
        },
        {
          "internalType": "bytes",
          "name": "",
          "type": "bytes"
        }
      ],
      "name": "beforeAgreementCreated",
      "outputs": [
        {
          "internalType": "bytes",
          "name": "",
          "type": "bytes"
        }
      ],
      "stateMutability": "view",
      "type": "function"
    },
    {
      "inputs": [
        {
          "internalType": "contract ISuperToken",
          "name": "",
          "type": "address"
        },
        {
          "internalType": "address",
          "name": "",
          "type": "address"
        },
        {
          "internalType": "bytes32",
          "name": "",
          "type": "bytes32"
        },
        {
          "internalType": "bytes",
          "name": "",
          "type": "bytes"
        },
        {
          "internalType": "bytes",
          "name": "",
          "type": "bytes"
        }
      ],
      "name": "beforeAgreementTerminated",
      "outputs": [
        {
          "internalType": "bytes",
          "name": "",
          "type": "bytes"
        }
      ],
      "stateMutability": "view",
      "type": "function"
    },
    {
      "inputs": [
        {
          "internalType": "contract ISuperToken",
          "name": "",
          "type": "address"
        },
        {
          "internalType": "address",
          "name": "",
          "type": "address"
        },
        {
          "internalType": "bytes32",
          "name": "",
          "type": "bytes32"
        },
        {
          "internalType": "bytes",
          "name": "",
          "type": "bytes"
        },
        {
          "internalType": "bytes",
          "name": "",
          "type": "bytes"
        }
      ],
      "name": "beforeAgreementUpdated",
      "outputs": [
        {
          "internalType": "bytes",
          "name": "",
          "type": "bytes"
        }
      ],
      "stateMutability": "view",
      "type": "function"
    },
    {
      "inputs": [],
      "name": "cfaV1",
      "outputs": [
        {
          "internalType": "contract ISuperfluid",
          "name": "host",
          "type": "address"
        },
        {
          "internalType": "contract IConstantFlowAgreementV1",
          "name": "cfa",
          "type": "address"
        }
      ],
      "stateMutability": "view",
      "type": "function"
    },
    {
      "inputs": [
        {
          "internalType": "address",
          "name": "_newOwner",
          "type": "address"
        }
      ],
      "name": "changeOwner",
      "outputs": [],
      "stateMutability": "nonpayable",
      "type": "function"
    },
    {
      "inputs": [
        {
          "internalType": "contract ISuperToken",
          "name": "token",
          "type": "address"
        },
        {
          "internalType": "address",
          "name": "receiver",
          "type": "address"
        },
        {
          "internalType": "int96",
          "name": "flowRate",
          "type": "int96"
        }
      ],
      "name": "createFlowFromContract",
      "outputs": [],
      "stateMutability": "nonpayable",
      "type": "function"
    },
    {
      "inputs": [
        {
          "internalType": "contract ISuperToken",
          "name": "token",
          "type": "address"
        },
        {
          "internalType": "int96",
          "name": "flowRate",
          "type": "int96"
        }
      ],
      "name": "createFlowIntoContract",
      "outputs": [],
      "stateMutability": "nonpayable",
      "type": "function"
    },
    {
      "inputs": [
        {
          "internalType": "contract ISuperToken",
          "name": "token",
          "type": "address"
        },
        {
          "internalType": "address",
          "name": "receiver",
          "type": "address"
        }
      ],
      "name": "deleteFlowFromContract",
      "outputs": [],
      "stateMutability": "nonpayable",
      "type": "function"
    },
    {
      "inputs": [
        {
          "internalType": "contract ISuperToken",
          "name": "token",
          "type": "address"
        }
      ],
      "name": "deleteFlowIntoContract",
      "outputs": [],
      "stateMutability": "nonpayable",
      "type": "function"
    },
    {
      "inputs": [],
      "name": "employee",
      "outputs": [
        {
          "internalType": "address",
          "name": "",
          "type": "address"
        }
      ],
      "stateMutability": "view",
      "type": "function"
    },
    {
      "inputs": [],
      "name": "employeeId",
      "outputs": [
        {
          "internalType": "uint256",
          "name": "",
          "type": "uint256"
        }
      ],
      "stateMutability": "view",
      "type": "function"
    },
    {
      "inputs": [],
      "name": "employer",
      "outputs": [
        {
          "internalType": "address",
          "name": "",
          "type": "address"
        }
      ],
      "stateMutability": "view",
      "type": "function"
    },
    {
      "inputs": [],
      "name": "getEmployeeId",
      "outputs": [
        {
          "internalType": "uint256",
          "name": "",
          "type": "uint256"
        }
      ],
      "stateMutability": "view",
      "type": "function"
    },
    {
      "inputs": [],
      "name": "getSalaryStartingTime",
      "outputs": [
        {
          "internalType": "uint256",
          "name": "",
          "type": "uint256"
        }
      ],
      "stateMutability": "view",
      "type": "function"
    },
    {
      "inputs": [],
      "name": "getWorkingPeriod",
      "outputs": [
        {
          "internalType": "uint256",
          "name": "",
          "type": "uint256"
        }
      ],
      "stateMutability": "view",
      "type": "function"
    },
    {
      "inputs": [],
      "name": "host",
      "outputs": [
        {
          "internalType": "contract ISuperfluid",
          "name": "",
          "type": "address"
        }
      ],
      "stateMutability": "view",
      "type": "function"
    },
    {
      "inputs": [
        {
          "internalType": "address",
          "name": "_account",
          "type": "address"
        }
      ],
      "name": "removeAccount",
      "outputs": [],
      "stateMutability": "nonpayable",
      "type": "function"
    },
    {
      "inputs": [],
      "name": "salaryFlowRate",
      "outputs": [
        {
          "internalType": "int96",
          "name": "",
          "type": "int96"
        }
      ],
      "stateMutability": "view",
      "type": "function"
    },
    {
      "inputs": [],
      "name": "salaryFluidOpen",
      "outputs": [
        {
          "internalType": "bool",
          "name": "",
          "type": "bool"
        }
      ],
      "stateMutability": "view",
      "type": "function"
    },
    {
      "inputs": [],
      "name": "salaryStartingTime",
      "outputs": [
        {
          "internalType": "uint256",
          "name": "",
          "type": "uint256"
        }
      ],
      "stateMutability": "view",
      "type": "function"
    },
    {
      "inputs": [],
      "name": "salaryToken",
      "outputs": [
        {
          "internalType": "contract ISuperToken",
          "name": "",
          "type": "address"
        }
      ],
      "stateMutability": "view",
      "type": "function"
    },
    {
      "inputs": [
        {
          "internalType": "contract ISuperToken",
          "name": "token",
          "type": "address"
        },
        {
          "internalType": "uint256",
          "name": "amount",
          "type": "uint256"
        }
      ],
      "name": "sendLumpSumToContract",
      "outputs": [],
      "stateMutability": "nonpayable",
      "type": "function"
    },
    {
      "inputs": [
        {
          "internalType": "contract ISuperToken",
          "name": "token",
          "type": "address"
        },
        {
          "internalType": "address",
          "name": "receiver",
          "type": "address"
        },
        {
          "internalType": "int96",
          "name": "flowRate",
          "type": "int96"
        }
      ],
      "name": "updateFlowFromContract",
      "outputs": [],
      "stateMutability": "nonpayable",
      "type": "function"
    },
    {
      "inputs": [
        {
          "internalType": "contract ISuperToken",
          "name": "token",
          "type": "address"
        },
        {
          "internalType": "int96",
          "name": "flowRate",
          "type": "int96"
        }
      ],
      "name": "updateFlowIntoContract",
      "outputs": [],
      "stateMutability": "nonpayable",
      "type": "function"
    },
    {
      "inputs": [
        {
          "internalType": "int96",
          "name": "_newSalaryFlowAmount",
          "type": "int96"
        }
      ],
      "name": "updateSalaryAmountPermission",
      "outputs": [],
      "stateMutability": "nonpayable",
      "type": "function"
    },
    {
      "inputs": [
        {
          "internalType": "contract ISuperToken",
          "name": "token",
          "type": "address"
        },
        {
          "internalType": "uint256",
          "name": "amount",
          "type": "uint256"
        }
      ],
      "name": "withdrawSalary",
      "outputs": [],
      "stateMutability": "nonpayable",
      "type": "function"
    }
  ],
  "bytecode": "0x6101006040523480156200001257600080fd5b5060405162003c2538038062003c2583398181016040528101906200003891906200050a565b85600260006101000a8154816bffffffffffffffffffffffff0219169083600b0b6bffffffffffffffffffffffff160217905550836002600c6101000a81548173ffffffffffffffffffffffffffffffffffffffff021916908373ffffffffffffffffffffffffffffffffffffffff1602179055508273ffffffffffffffffffffffffffffffffffffffff1660808173ffffffffffffffffffffffffffffffffffffffff16815250508460e081815250508173ffffffffffffffffffffffffffffffffffffffff1660c08173ffffffffffffffffffffffffffffffffffffffff16815250508073ffffffffffffffffffffffffffffffffffffffff1660a08173ffffffffffffffffffffffffffffffffffffffff16815250506000600360006101000a81548160ff021916908315150217905550604051806040016040528060a05173ffffffffffffffffffffffffffffffffffffffff16815260200160a05173ffffffffffffffffffffffffffffffffffffffff1663b6d200de7fa9214cc96615e0085d3bb077758db69497dc2dce3b2b1e97bc93c3d18d83efd36040518263ffffffff1660e01b8152600401620001f29190620005c1565b602060405180830381865afa15801562000210573d6000803e3d6000fd5b505050506040513d601f19601f8201168201806040525081019062000236919062000623565b73ffffffffffffffffffffffffffffffffffffffff168152506000808201518160000160006101000a81548173ffffffffffffffffffffffffffffffffffffffff021916908373ffffffffffffffffffffffffffffffffffffffff16021790555060208201518160010160006101000a81548173ffffffffffffffffffffffffffffffffffffffff021916908373ffffffffffffffffffffffffffffffffffffffff1602179055509050506001600560008673ffffffffffffffffffffffffffffffffffffffff1673ffffffffffffffffffffffffffffffffffffffff16815260200190815260200160002060006101000a81548160ff0219169083151502179055506001600560008573ffffffffffffffffffffffffffffffffffffffff1673ffffffffffffffffffffffffffffffffffffffff16815260200190815260200160002060006101000a81548160ff02191690831515021790555050505050505062000655565b600080fd5b600081600b0b9050919050565b620003ba81620003a2565b8114620003c657600080fd5b50565b600081519050620003da81620003af565b92915050565b6000819050919050565b620003f581620003e0565b81146200040157600080fd5b50565b6000815190506200041581620003ea565b92915050565b600073ffffffffffffffffffffffffffffffffffffffff82169050919050565b600062000448826200041b565b9050919050565b6200045a816200043b565b81146200046657600080fd5b50565b6000815190506200047a816200044f565b92915050565b60006200048d826200043b565b9050919050565b6200049f8162000480565b8114620004ab57600080fd5b50565b600081519050620004bf8162000494565b92915050565b6000620004d2826200043b565b9050919050565b620004e481620004c5565b8114620004f057600080fd5b50565b6000815190506200050481620004d9565b92915050565b60008060008060008060c087890312156200052a57620005296200039d565b5b60006200053a89828a01620003c9565b96505060206200054d89828a0162000404565b95505060406200056089828a0162000469565b94505060606200057389828a0162000469565b93505060806200058689828a01620004ae565b92505060a06200059989828a01620004f3565b9150509295509295509295565b6000819050919050565b620005bb81620005a6565b82525050565b6000602082019050620005d86000830184620005b0565b92915050565b6000620005eb826200043b565b9050919050565b620005fd81620005de565b81146200060957600080fd5b50565b6000815190506200061d81620005f2565b92915050565b6000602082840312156200063c576200063b6200039d565b5b60006200064c848285016200060c565b91505092915050565b60805160a05160c05160e051613565620006c060003960008181610fa30152610fc9015260008181610e180152818161124801526118920152600061180c015260008181610673015281816107730152818161102a015281816111bc01526114df01526135656000f3fe608060405234801561001057600080fd5b50600436106101f05760003560e01c80637cd9a56b1161010f578063b71d7752116100a2578063d3112b2e11610071578063d3112b2e1461057f578063d3a07fcd1461059e578063d86ed3e5146105ce578063f437bc59146105fe576101f0565b8063b71d77521461050d578063b9f7b12b1461052b578063c2f7c65414610547578063c4740a9514610563576101f0565b8063a5510b32116100de578063a5510b321461049b578063a597f8c3146104b7578063a6f9dae1146104d3578063ae200e79146104ef576101f0565b80637cd9a56b1461041157806384ab30a51461042f578063884d1f401461044d578063a0a1a7d71461047d576101f0565b80632cb34c6b116101875780635acdf4a4116101565780635acdf4a4146103895780635cf0d206146103a75780635f9e7d77146103c55780636715e19f146103f5576101f0565b80632cb34c6b146102ef5780632fca92491461030d57806330d9c9151461032957806353c11f9914610359576101f0565b8063215eed02116101c3578063215eed0214610267578063230dbd291461028557806324defd53146102b557806326ff92e4146102d3576101f0565b8063097e69ef146101f55780630de2d5f21461021157806310b71e711461022f5780631acc948c1461024b575b600080fd5b61020f600480360381019061020a91906126b9565b61061c565b005b610219610716565b6040516102269190612725565b60405180910390f35b6102496004803603810190610244919061276c565b61071c565b005b610265600480360381019061026091906127ac565b61087c565b005b61026f61095e565b60405161027c91906127f2565b60405180910390f35b61029f600480360381019061029a919061289e565b610982565b6040516102ac9190612a26565b60405180910390f35b6102bd610ab7565b6040516102ca9190612725565b60405180910390f35b6102ed60048036038101906102e8919061276c565b610acc565b005b6102f7610c30565b6040516103049190612725565b60405180910390f35b61032760048036038101906103229190612a48565b610c3a565b005b610343600480360381019061033e9190612a88565b610d38565b6040516103509190612a26565b60405180910390f35b610373600480360381019061036e919061289e565b610d75565b6040516103809190612a26565b60405180910390f35b610391610e16565b60405161039e9190612ba3565b60405180910390f35b6103af610e3a565b6040516103bc9190612bd9565b60405180910390f35b6103df60048036038101906103da9190612a88565b610e4d565b6040516103ec9190612a26565b60405180910390f35b61040f600480360381019061040a9190612bf4565b610e8a565b005b610419610f9f565b6040516104269190612725565b60405180910390f35b610437610fc7565b6040516104449190612725565b60405180910390f35b61046760048036038101906104629190612a88565b610feb565b6040516104749190612a26565b60405180910390f35b610485611028565b6040516104929190612c30565b60405180910390f35b6104b560048036038101906104b09190612a48565b61104c565b005b6104d160048036038101906104cc9190612c4b565b611165565b005b6104ed60048036038101906104e891906127ac565b611281565b005b6104f761134c565b6040516105049190612c30565b60405180910390f35b610515611372565b6040516105229190612c87565b60405180910390f35b610545600480360381019061054091906126b9565b611385565b005b610561600480360381019061055c9190612ca2565b611488565b005b61057d600480360381019061057891906127ac565b611581565b005b610587611663565b604051610595929190612d24565b60405180910390f35b6105b860048036038101906105b391906127ac565b6116b5565b6040516105c59190612bd9565b60405180910390f35b6105e860048036038101906105e3919061289e565b6116d5565b6040516105f59190612a26565b60405180910390f35b61060661180a565b6040516106139190612d4d565b60405180910390f35b600560003373ffffffffffffffffffffffffffffffffffffffff1673ffffffffffffffffffffffffffffffffffffffff16815260200190815260200160002060009054906101000a900460ff161580156106c257507f000000000000000000000000000000000000000000000000000000000000000073ffffffffffffffffffffffffffffffffffffffff163373ffffffffffffffffffffffffffffffffffffffff1614155b156106f9576040517f82b4290000000000000000000000000000000000000000000000000000000000815260040160405180910390fd5b610711828483600061182e909392919063ffffffff16565b505050565b60045481565b600560003373ffffffffffffffffffffffffffffffffffffffff1673ffffffffffffffffffffffffffffffffffffffff16815260200190815260200160002060009054906101000a900460ff161580156107c257507f000000000000000000000000000000000000000000000000000000000000000073ffffffffffffffffffffffffffffffffffffffff163373ffffffffffffffffffffffffffffffffffffffff1614155b156107f9576040517f82b4290000000000000000000000000000000000000000000000000000000000815260040160405180910390fd5b8173ffffffffffffffffffffffffffffffffffffffff1663a9059cbb33836040518363ffffffff1660e01b8152600401610834929190612d68565b6020604051808303816000875af1158015610853573d6000803e3d6000fd5b505050506040513d601f19601f820116820180604052508101906108779190612dbd565b505050565b6002600c9054906101000a900473ffffffffffffffffffffffffffffffffffffffff1673ffffffffffffffffffffffffffffffffffffffff163373ffffffffffffffffffffffffffffffffffffffff1614610903576040517f82b4290000000000000000000000000000000000000000000000000000000000815260040160405180910390fd5b6001600560008373ffffffffffffffffffffffffffffffffffffffff1673ffffffffffffffffffffffffffffffffffffffff16815260200190815260200160002060006101000a81548160ff02191690831515021790555050565b7fa9214cc96615e0085d3bb077758db69497dc2dce3b2b1e97bc93c3d18d83efd381565b6060898961098f8261188e565b6109ce576040517f08c379a00000000000000000000000000000000000000000000000000000000081526004016109c590612e47565b60405180910390fd5b6109d7816118e6565b610a16576040517f08c379a0000000000000000000000000000000000000000000000000000000008152600401610a0d90612ed9565b60405180910390fd5b6000800160009054906101000a900473ffffffffffffffffffffffffffffffffffffffff1673ffffffffffffffffffffffffffffffffffffffff163373ffffffffffffffffffffffffffffffffffffffff1614610aa8576040517f08c379a0000000000000000000000000000000000000000000000000000000008152600401610a9f90612f45565b60405180910390fd5b50509998505050505050505050565b600060045442610ac79190612f94565b905090565b600560003373ffffffffffffffffffffffffffffffffffffffff1673ffffffffffffffffffffffffffffffffffffffff16815260200190815260200160002060009054906101000a900460ff16158015610b7457506002600c9054906101000a900473ffffffffffffffffffffffffffffffffffffffff1673ffffffffffffffffffffffffffffffffffffffff163373ffffffffffffffffffffffffffffffffffffffff1614155b15610bab576040517f82b4290000000000000000000000000000000000000000000000000000000000815260040160405180910390fd5b8173ffffffffffffffffffffffffffffffffffffffff166323b872dd3330846040518463ffffffff1660e01b8152600401610be893929190612fc8565b6020604051808303816000875af1158015610c07573d6000803e3d6000fd5b505050506040513d601f19601f82011682018060405250810190610c2b9190612dbd565b505050565b6000600454905090565b600560003373ffffffffffffffffffffffffffffffffffffffff1673ffffffffffffffffffffffffffffffffffffffff16815260200190815260200160002060009054906101000a900460ff16158015610ce257506002600c9054906101000a900473ffffffffffffffffffffffffffffffffffffffff1673ffffffffffffffffffffffffffffffffffffffff163373ffffffffffffffffffffffffffffffffffffffff1614155b15610d19576040517f82b4290000000000000000000000000000000000000000000000000000000000815260040160405180910390fd5b610d3333308484600061198090949392919063ffffffff16565b505050565b60606040517f08c379a0000000000000000000000000000000000000000000000000000000008152600401610d6c90613071565b60405180910390fd5b60606000800160009054906101000a900473ffffffffffffffffffffffffffffffffffffffff1673ffffffffffffffffffffffffffffffffffffffff163373ffffffffffffffffffffffffffffffffffffffff1614610e09576040517f08c379a0000000000000000000000000000000000000000000000000000000008152600401610e0090612f45565b60405180910390fd5b9998505050505050505050565b7f000000000000000000000000000000000000000000000000000000000000000081565b600360009054906101000a900460ff1681565b60606040517f08c379a0000000000000000000000000000000000000000000000000000000008152600401610e8190613103565b60405180910390fd5b600560003373ffffffffffffffffffffffffffffffffffffffff1673ffffffffffffffffffffffffffffffffffffffff16815260200190815260200160002060009054906101000a900460ff16158015610f3257506002600c9054906101000a900473ffffffffffffffffffffffffffffffffffffffff1673ffffffffffffffffffffffffffffffffffffffff163373ffffffffffffffffffffffffffffffffffffffff1614155b15610f69576040517f82b4290000000000000000000000000000000000000000000000000000000000815260040160405180910390fd5b610f8133308360006119e8909392919063ffffffff16565b6000600360006101000a81548160ff02191690831515021790555050565b60007f0000000000000000000000000000000000000000000000000000000000000000905090565b7f000000000000000000000000000000000000000000000000000000000000000081565b60606040517f08c379a000000000000000000000000000000000000000000000000000000000815260040161101f90613195565b60405180910390fd5b7f000000000000000000000000000000000000000000000000000000000000000081565b600560003373ffffffffffffffffffffffffffffffffffffffff1673ffffffffffffffffffffffffffffffffffffffff16815260200190815260200160002060009054906101000a900460ff161580156110f457506002600c9054906101000a900473ffffffffffffffffffffffffffffffffffffffff1673ffffffffffffffffffffffffffffffffffffffff163373ffffffffffffffffffffffffffffffffffffffff1614155b1561112b576040517f82b4290000000000000000000000000000000000000000000000000000000000815260040160405180910390fd5b611145333084846000611a4890949392919063ffffffff16565b506001600360006101000a81548160ff0219169083151502179055505050565b600560003373ffffffffffffffffffffffffffffffffffffffff1673ffffffffffffffffffffffffffffffffffffffff16815260200190815260200160002060009054906101000a900460ff1615801561120b57507f000000000000000000000000000000000000000000000000000000000000000073ffffffffffffffffffffffffffffffffffffffff163373ffffffffffffffffffffffffffffffffffffffff1614155b15611242576040517f82b4290000000000000000000000000000000000000000000000000000000000815260040160405180910390fd5b61127d307f00000000000000000000000000000000000000000000000000000000000000006007846000611ab090949392919063ffffffff16565b5050565b6002600c9054906101000a900473ffffffffffffffffffffffffffffffffffffffff1673ffffffffffffffffffffffffffffffffffffffff163373ffffffffffffffffffffffffffffffffffffffff1614611308576040517f82b4290000000000000000000000000000000000000000000000000000000000815260040160405180910390fd5b806002600c6101000a81548173ffffffffffffffffffffffffffffffffffffffff021916908373ffffffffffffffffffffffffffffffffffffffff16021790555050565b6002600c9054906101000a900473ffffffffffffffffffffffffffffffffffffffff1681565b600260009054906101000a9004600b0b81565b600560003373ffffffffffffffffffffffffffffffffffffffff1673ffffffffffffffffffffffffffffffffffffffff16815260200190815260200160002060009054906101000a900460ff1615801561142d57506002600c9054906101000a900473ffffffffffffffffffffffffffffffffffffffff1673ffffffffffffffffffffffffffffffffffffffff163373ffffffffffffffffffffffffffffffffffffffff1614155b15611464576040517f82b4290000000000000000000000000000000000000000000000000000000000815260040160405180910390fd5b61147c8284836000611cbe909392919063ffffffff16565b42600481905550505050565b600560003373ffffffffffffffffffffffffffffffffffffffff1673ffffffffffffffffffffffffffffffffffffffff16815260200190815260200160002060009054906101000a900460ff1615801561152e57507f000000000000000000000000000000000000000000000000000000000000000073ffffffffffffffffffffffffffffffffffffffff163373ffffffffffffffffffffffffffffffffffffffff1614155b15611565576040517f82b4290000000000000000000000000000000000000000000000000000000000815260040160405180910390fd5b61157d30828460006119e8909392919063ffffffff16565b5050565b6002600c9054906101000a900473ffffffffffffffffffffffffffffffffffffffff1673ffffffffffffffffffffffffffffffffffffffff163373ffffffffffffffffffffffffffffffffffffffff1614611608576040517f82b4290000000000000000000000000000000000000000000000000000000000815260040160405180910390fd5b6000600560008373ffffffffffffffffffffffffffffffffffffffff1673ffffffffffffffffffffffffffffffffffffffff16815260200190815260200160002060006101000a81548160ff02191690831515021790555050565b60008060000160009054906101000a900473ffffffffffffffffffffffffffffffffffffffff16908060010160009054906101000a900473ffffffffffffffffffffffffffffffffffffffff16905082565b60056020528060005260406000206000915054906101000a900460ff1681565b606089896116e28261188e565b611721576040517f08c379a000000000000000000000000000000000000000000000000000000000815260040161171890612e47565b60405180910390fd5b61172a816118e6565b611769576040517f08c379a000000000000000000000000000000000000000000000000000000000815260040161176090612ed9565b60405180910390fd5b6000800160009054906101000a900473ffffffffffffffffffffffffffffffffffffffff1673ffffffffffffffffffffffffffffffffffffffff163373ffffffffffffffffffffffffffffffffffffffff16146117fb576040517f08c379a00000000000000000000000000000000000000000000000000000000081526004016117f290612f45565b60405180910390fd5b50509998505050505050505050565b7f000000000000000000000000000000000000000000000000000000000000000081565b61188884848484600067ffffffffffffffff8111156118505761184f6131b5565b5b6040519080825280601f01601f1916602001820160405280156118825781602001600182028036833780820191505090505b50611d1e565b50505050565b60007f000000000000000000000000000000000000000000000000000000000000000073ffffffffffffffffffffffffffffffffffffffff168273ffffffffffffffffffffffffffffffffffffffff16149050919050565b60007fa9214cc96615e0085d3bb077758db69497dc2dce3b2b1e97bc93c3d18d83efd38273ffffffffffffffffffffffffffffffffffffffff16637730599e6040518163ffffffff1660e01b8152600401602060405180830381865afa158015611954573d6000803e3d6000fd5b505050506040513d601f19601f8201168201806040525081019061197891906131f9565b149050919050565b60606119dd8686868686600067ffffffffffffffff8111156119a5576119a46131b5565b5b6040519080825280601f01601f1916602001820160405280156119d75781602001600182028036833780820191505090505b50611ed8565b905095945050505050565b611a4284848484600067ffffffffffffffff811115611a0a57611a096131b5565b5b6040519080825280601f01601f191660200182016040528015611a3c5781602001600182028036833780820191505090505b5061209a565b50505050565b6060611aa58686868686600067ffffffffffffffff811115611a6d57611a6c6131b5565b5b6040519080825280601f01601f191660200182016040528015611a9f5781602001600182028036833780820191505090505b50612254565b905095945050505050565b60608560000160009054906101000a900473ffffffffffffffffffffffffffffffffffffffff1673ffffffffffffffffffffffffffffffffffffffff166339255d5b8760010160009054906101000a900473ffffffffffffffffffffffffffffffffffffffff168860010160009054906101000a900473ffffffffffffffffffffffffffffffffffffffff1673ffffffffffffffffffffffffffffffffffffffff1663811b3d40888a8989600067ffffffffffffffff811115611b7657611b756131b5565b5b6040519080825280601f01601f191660200182016040528015611ba85781602001600182028036833780820191505090505b50604051602401611bbd959493929190613263565b604051602081830303815290604052915060e01b6020820180517bffffffffffffffffffffffffffffffffffffffffffffffffffffffff8381831617835250505050600067ffffffffffffffff811115611c1a57611c196131b5565b5b6040519080825280601f01601f191660200182016040528015611c4c5781602001600182028036833780820191505090505b506040518463ffffffff1660e01b8152600401611c6b939291906132bd565b6000604051808303816000875af1158015611c8a573d6000803e3d6000fd5b505050506040513d6000823e3d601f19601f82011682018060405250810190611cb391906133f4565b905095945050505050565b611d1884848484600067ffffffffffffffff811115611ce057611cdf6131b5565b5b6040519080825280601f01601f191660200182016040528015611d125781602001600182028036833780820191505090505b50612416565b50505050565b8460000160009054906101000a900473ffffffffffffffffffffffffffffffffffffffff1673ffffffffffffffffffffffffffffffffffffffff166339255d5b8660010160009054906101000a900473ffffffffffffffffffffffffffffffffffffffff168760010160009054906101000a900473ffffffffffffffffffffffffffffffffffffffff1673ffffffffffffffffffffffffffffffffffffffff166350209a62878988600067ffffffffffffffff811115611de157611de06131b5565b5b6040519080825280601f01601f191660200182016040528015611e135781602001600182028036833780820191505090505b50604051602401611e27949392919061343d565b604051602081830303815290604052915060e01b6020820180517bffffffffffffffffffffffffffffffffffffffffffffffffffffffff8381831617835250505050846040518463ffffffff1660e01b8152600401611e88939291906132bd565b6000604051808303816000875af1158015611ea7573d6000803e3d6000fd5b505050506040513d6000823e3d601f19601f82011682018060405250810190611ed091906133f4565b505050505050565b60608660000160009054906101000a900473ffffffffffffffffffffffffffffffffffffffff1673ffffffffffffffffffffffffffffffffffffffff166339255d5b8860010160009054906101000a900473ffffffffffffffffffffffffffffffffffffffff168960010160009054906101000a900473ffffffffffffffffffffffffffffffffffffffff1673ffffffffffffffffffffffffffffffffffffffff1663354b9590888b8b8a600067ffffffffffffffff811115611f9e57611f9d6131b5565b5b6040519080825280601f01601f191660200182016040528015611fd05781602001600182028036833780820191505090505b50604051602401611fe5959493929190613489565b604051602081830303815290604052915060e01b6020820180517bffffffffffffffffffffffffffffffffffffffffffffffffffffffff8381831617835250505050856040518463ffffffff1660e01b8152600401612046939291906132bd565b6000604051808303816000875af1158015612065573d6000803e3d6000fd5b505050506040513d6000823e3d601f19601f8201168201806040525081019061208e91906133f4565b90509695505050505050565b8460000160009054906101000a900473ffffffffffffffffffffffffffffffffffffffff1673ffffffffffffffffffffffffffffffffffffffff166339255d5b8660010160009054906101000a900473ffffffffffffffffffffffffffffffffffffffff168760010160009054906101000a900473ffffffffffffffffffffffffffffffffffffffff1673ffffffffffffffffffffffffffffffffffffffff1663b4b333c6868989600067ffffffffffffffff81111561215d5761215c6131b5565b5b6040519080825280601f01601f19166020018201604052801561218f5781602001600182028036833780820191505090505b506040516024016121a394939291906134e3565b604051602081830303815290604052915060e01b6020820180517bffffffffffffffffffffffffffffffffffffffffffffffffffffffff8381831617835250505050846040518463ffffffff1660e01b8152600401612204939291906132bd565b6000604051808303816000875af1158015612223573d6000803e3d6000fd5b505050506040513d6000823e3d601f19601f8201168201806040525081019061224c91906133f4565b505050505050565b60608660000160009054906101000a900473ffffffffffffffffffffffffffffffffffffffff1673ffffffffffffffffffffffffffffffffffffffff166339255d5b8860010160009054906101000a900473ffffffffffffffffffffffffffffffffffffffff168960010160009054906101000a900473ffffffffffffffffffffffffffffffffffffffff1673ffffffffffffffffffffffffffffffffffffffff166394229ecb888b8b8a600067ffffffffffffffff81111561231a576123196131b5565b5b6040519080825280601f01601f19166020018201604052801561234c5781602001600182028036833780820191505090505b50604051602401612361959493929190613489565b604051602081830303815290604052915060e01b6020820180517bffffffffffffffffffffffffffffffffffffffffffffffffffffffff8381831617835250505050856040518463ffffffff1660e01b81526004016123c2939291906132bd565b6000604051808303816000875af11580156123e1573d6000803e3d6000fd5b505050506040513d6000823e3d601f19601f8201168201806040525081019061240a91906133f4565b90509695505050505050565b8460000160009054906101000a900473ffffffffffffffffffffffffffffffffffffffff1673ffffffffffffffffffffffffffffffffffffffff166339255d5b8660010160009054906101000a900473ffffffffffffffffffffffffffffffffffffffff168760010160009054906101000a900473ffffffffffffffffffffffffffffffffffffffff1673ffffffffffffffffffffffffffffffffffffffff166362fc305e878988600067ffffffffffffffff8111156124d9576124d86131b5565b5b6040519080825280601f01601f19166020018201604052801561250b5781602001600182028036833780820191505090505b5060405160240161251f949392919061343d565b604051602081830303815290604052915060e01b6020820180517bffffffffffffffffffffffffffffffffffffffffffffffffffffffff8381831617835250505050846040518463ffffffff1660e01b8152600401612580939291906132bd565b6000604051808303816000875af115801561259f573d6000803e3d6000fd5b505050506040513d6000823e3d601f19601f820116820180604052508101906125c891906133f4565b505050505050565b6000604051905090565b600080fd5b600080fd5b600073ffffffffffffffffffffffffffffffffffffffff82169050919050565b600061260f826125e4565b9050919050565b600061262182612604565b9050919050565b61263181612616565b811461263c57600080fd5b50565b60008135905061264e81612628565b92915050565b61265d81612604565b811461266857600080fd5b50565b60008135905061267a81612654565b92915050565b600081600b0b9050919050565b61269681612680565b81146126a157600080fd5b50565b6000813590506126b38161268d565b92915050565b6000806000606084860312156126d2576126d16125da565b5b60006126e08682870161263f565b93505060206126f18682870161266b565b9250506040612702868287016126a4565b9150509250925092565b6000819050919050565b61271f8161270c565b82525050565b600060208201905061273a6000830184612716565b92915050565b6127498161270c565b811461275457600080fd5b50565b60008135905061276681612740565b92915050565b60008060408385031215612783576127826125da565b5b60006127918582860161263f565b92505060206127a285828601612757565b9150509250929050565b6000602082840312156127c2576127c16125da565b5b60006127d08482850161266b565b91505092915050565b6000819050919050565b6127ec816127d9565b82525050565b600060208201905061280760008301846127e3565b92915050565b612816816127d9565b811461282157600080fd5b50565b6000813590506128338161280d565b92915050565b600080fd5b600080fd5b600080fd5b60008083601f84011261285e5761285d612839565b5b8235905067ffffffffffffffff81111561287b5761287a61283e565b5b60208301915083600182028301111561289757612896612843565b5b9250929050565b600080600080600080600080600060c08a8c0312156128c0576128bf6125da565b5b60006128ce8c828d0161263f565b99505060206128df8c828d0161266b565b98505060406128f08c828d01612824565b97505060608a013567ffffffffffffffff811115612911576129106125df565b5b61291d8c828d01612848565b965096505060808a013567ffffffffffffffff8111156129405761293f6125df565b5b61294c8c828d01612848565b945094505060a08a013567ffffffffffffffff81111561296f5761296e6125df565b5b61297b8c828d01612848565b92509250509295985092959850929598565b600081519050919050565b600082825260208201905092915050565b60005b838110156129c75780820151818401526020810190506129ac565b838111156129d6576000848401525b50505050565b6000601f19601f8301169050919050565b60006129f88261298d565b612a028185612998565b9350612a128185602086016129a9565b612a1b816129dc565b840191505092915050565b60006020820190508181036000830152612a4081846129ed565b905092915050565b60008060408385031215612a5f57612a5e6125da565b5b6000612a6d8582860161263f565b9250506020612a7e858286016126a4565b9150509250929050565b600080600080600080600060a0888a031215612aa757612aa66125da565b5b6000612ab58a828b0161263f565b9750506020612ac68a828b0161266b565b9650506040612ad78a828b01612824565b955050606088013567ffffffffffffffff811115612af857612af76125df565b5b612b048a828b01612848565b9450945050608088013567ffffffffffffffff811115612b2757612b266125df565b5b612b338a828b01612848565b925092505092959891949750929550565b6000819050919050565b6000612b69612b64612b5f846125e4565b612b44565b6125e4565b9050919050565b6000612b7b82612b4e565b9050919050565b6000612b8d82612b70565b9050919050565b612b9d81612b82565b82525050565b6000602082019050612bb86000830184612b94565b92915050565b60008115159050919050565b612bd381612bbe565b82525050565b6000602082019050612bee6000830184612bca565b92915050565b600060208284031215612c0a57612c096125da565b5b6000612c188482850161263f565b91505092915050565b612c2a81612604565b82525050565b6000602082019050612c456000830184612c21565b92915050565b600060208284031215612c6157612c606125da565b5b6000612c6f848285016126a4565b91505092915050565b612c8181612680565b82525050565b6000602082019050612c9c6000830184612c78565b92915050565b60008060408385031215612cb957612cb86125da565b5b6000612cc78582860161263f565b9250506020612cd88582860161266b565b9150509250929050565b6000612ced82612b70565b9050919050565b612cfd81612ce2565b82525050565b6000612d0e82612b70565b9050919050565b612d1e81612d03565b82525050565b6000604082019050612d396000830185612cf4565b612d466020830184612d15565b9392505050565b6000602082019050612d626000830184612cf4565b92915050565b6000604082019050612d7d6000830185612c21565b612d8a6020830184612716565b9392505050565b612d9a81612bbe565b8114612da557600080fd5b50565b600081519050612db781612d91565b92915050565b600060208284031215612dd357612dd26125da565b5b6000612de184828501612da8565b91505092915050565b600082825260208201905092915050565b7f5265646972656374416c6c3a206e6f7420616363657074656420746f6b656e00600082015250565b6000612e31601f83612dea565b9150612e3c82612dfb565b602082019050919050565b60006020820190508181036000830152612e6081612e24565b9050919050565b7f5265646972656374416c6c3a206f6e6c7920434641763120737570706f72746560008201527f6400000000000000000000000000000000000000000000000000000000000000602082015250565b6000612ec3602183612dea565b9150612ece82612e67565b604082019050919050565b60006020820190508181036000830152612ef281612eb6565b9050919050565b7f4f6e6c7920686f73742063616e2063616c6c2063616c6c6261636b0000000000600082015250565b6000612f2f601b83612dea565b9150612f3a82612ef9565b602082019050919050565b60006020820190508181036000830152612f5e81612f22565b9050919050565b7f4e487b7100000000000000000000000000000000000000000000000000000000600052601160045260246000fd5b6000612f9f8261270c565b9150612faa8361270c565b925082821015612fbd57612fbc612f65565b5b828203905092915050565b6000606082019050612fdd6000830186612c21565b612fea6020830185612c21565b612ff76040830184612716565b949350505050565b7f556e737570706f727465642063616c6c6261636b202d204265666f726520416760008201527f7265656d656e7420437265617465640000000000000000000000000000000000602082015250565b600061305b602f83612dea565b915061306682612fff565b604082019050919050565b6000602082019050818103600083015261308a8161304e565b9050919050565b7f556e737570706f727465642063616c6c6261636b202d20204265666f7265204160008201527f677265656d656e74205465726d696e6174656400000000000000000000000000602082015250565b60006130ed603383612dea565b91506130f882613091565b604082019050919050565b6000602082019050818103600083015261311c816130e0565b9050919050565b7f556e737570706f727465642063616c6c6261636b202d204265666f726520416760008201527f7265656d656e7420757064617465640000000000000000000000000000000000602082015250565b600061317f602f83612dea565b915061318a82613123565b604082019050919050565b600060208201905081810360008301526131ae81613172565b9050919050565b7f4e487b7100000000000000000000000000000000000000000000000000000000600052604160045260246000fd5b6000815190506131f38161280d565b92915050565b60006020828403121561320f5761320e6125da565b5b600061321d848285016131e4565b91505092915050565b600061323182612b70565b9050919050565b61324181613226565b82525050565b600060ff82169050919050565b61325d81613247565b82525050565b600060a0820190506132786000830188613238565b6132856020830187612c21565b6132926040830186613254565b61329f6060830185612c78565b81810360808301526132b181846129ed565b90509695505050505050565b60006060820190506132d26000830186612d15565b81810360208301526132e481856129ed565b905081810360408301526132f881846129ed565b9050949350505050565b600080fd5b613310826129dc565b810181811067ffffffffffffffff8211171561332f5761332e6131b5565b5b80604052505050565b60006133426125d0565b905061334e8282613307565b919050565b600067ffffffffffffffff82111561336e5761336d6131b5565b5b613377826129dc565b9050602081019050919050565b600061339761339284613353565b613338565b9050828152602081018484840111156133b3576133b2613302565b5b6133be8482856129a9565b509392505050565b600082601f8301126133db576133da612839565b5b81516133eb848260208601613384565b91505092915050565b60006020828403121561340a576134096125da565b5b600082015167ffffffffffffffff811115613428576134276125df565b5b613434848285016133c6565b91505092915050565b60006080820190506134526000830187613238565b61345f6020830186612c21565b61346c6040830185612c78565b818103606083015261347e81846129ed565b905095945050505050565b600060a08201905061349e6000830188613238565b6134ab6020830187612c21565b6134b86040830186612c21565b6134c56060830185612c78565b81810360808301526134d781846129ed565b90509695505050505050565b60006080820190506134f86000830187613238565b6135056020830186612c21565b6135126040830185612c21565b818103606083015261352481846129ed565b90509594505050505056fea26469706673582212201ee415446b20090f307b57b09da95078286eae223eb29783774c9d38dd847a6b64736f6c634300080e0033",
  "linkReferences": {},
  "deployedLinkReferences": {}
}